:100000000C9435000C945D000C945D000C945D0024
:100010000C945D000C945D000C945D000C945D00EC
:100020000C945D000C945D000C945D000C945D00DC
:100030000C945D000C945D000C945D000C945D00CC
:100040000C9404020C945D000C9474020C944E0207
:100050000C945D000C945D000C945D000C945D00AC
:100060000C945D000C945D008F0311241FBECFEF34
:10007000D8E0DEBFCDBF11E0A0E0B1E0ECECF7E0EE
:1000800002C005900D92A831B107D9F721E0A8E18F
:10009000B1E001C01D92AE3BB207E1F710E0C5E34D
:1000A000D0E004C02197FE010E94DE03C433D107D3
:1000B000C9F70E94A6020C94E4030C940000AF92CE
:1000C000BF92CF92DF92EF92FF920F931F93CF9345
:1000D000DF936C017B018B01040F151FEB015E01A7
:1000E000AE18BF08C017D10759F06991D601ED913C
:1000F000FC910190F081E02DC6010995892B79F7DB
:10010000C501DF91CF911F910F91FF90EF90DF908C
:10011000CF90BF90AF900895FC01538D448D252F53
:1001200030E0842F90E0821B930B541710F0CF9691
:10013000089501970895FC01918D828D981761F0C3
:10014000A28DAE0FBF2FB11D5D968C91928D9F5FDA
:100150009F73928F90E008958FEF9FEF0895FC01B9
:10016000918D828D981731F0828DE80FF11D858D6C
:1001700090E008958FEF9FEF0895FC01918D228DFF
:10018000892F90E0805C9F4F821B91098F73992784
:10019000089581E291E00E94BD0021E0892B09F4DD
:1001A00020E0822F089580E090E0892B29F00E94C2
:1001B000C90081110C9400000895FC01A48DA80FC2
:1001C000B92FB11DA35ABF4F2C91848D90E0019699
:1001D0008F739927848FA689B7892C93A089B189B9
:1001E0008C91837080648C93938D848D981306C05A
:1001F0000288F389E02D80818F7D80830895EF92BE
:10020000FF920F931F93CF93DF93EC0181E0888FD0
:100210009B8D8C8D98131AC0E889F989808185FFA0
:1002200015C09FB7F894EE89FF896083E889F98942
:1002300080818370806480839FBF81E090E0DF9144
:10024000CF911F910F91FF90EF900895F62E0B8D97
:1002500010E00F5F1F4F0F731127E02E8C8D8E1152
:100260000CC00FB607FCFACFE889F989808185FFB9
:10027000F5CFCE010E94DD00F1CFEB8DEC0FFD2F0D
:10028000F11DE35AFF4FF0829FB7F8940B8FEA8974
:10029000FB8980818062CFCFCF93DF93EC01888D83
:1002A0008823B9F0AA89BB89E889F9898C9185FDF1
:1002B00003C0808186FD0DC00FB607FCF7CF8C917F
:1002C00085FFF2CF808185FFEDCFCE010E94DD005A
:1002D000E9CFDF91CF910895FC0101900020E9F76B
:1002E0003197AF01481B590BBC0181E291E00C949E
:1002F0005F00CF93DF9382E191E00E946C01EC01FB
:1003000084E191E00E946C018C0F9D1FDF91CF91E1
:1003100008958F929F92AF92BF92CF92DF92EF9209
:10032000FF920F931F93CF93DF93CDB7DEB7A197C3
:100330000FB6F894DEBF0FBECDBF6B017C01F7FE98
:1003400041C06DE281E291E00E94FF008C01222712
:100350003327A9012C193D094E095F0919A2CE01C5
:1003600081967C019AE0892E912CA12CB12CCA0196
:10037000B901A50194010E94BC03605DF70162937D
:100380007F01211531054105510589F790E080E095
:10039000309719F0CF010E946C01800F911FA19638
:1003A0000FB6F894DEBF0FBECDBFDF91CF911F9186
:1003B0000F91FF90EF90DF90CF90BF90AF909F9004
:1003C0008F900895AC019B0119A28E010F5D1F4F04
:1003D0008AE0C82ED12CE12CF12CCA01B901A70169
:1003E00096010E94BC03605DF80162938F012115A4
:1003F00031054105510589F790E080E0309779F2A9
:10040000CF010E946C01CBCF1F920F920FB60F92BB
:1004100011242F933F938F939F93AF93BF9380911A
:100420001D0190911E01A0911F01B09120013091FA
:100430001C0123E0230F2D3758F50196A11DB11D96
:1004400020931C0180931D0190931E01A0931F0116
:10045000B09320018091180190911901A0911A0187
:10046000B0911B010196A11DB11D809318019093BD
:100470001901A0931A01B0931B01BF91AF919F91F5
:100480008F913F912F910F900FBE0F901F90189555
:1004900026E8230F0296A11DB11DD2CF1F920F9205
:1004A0000FB60F9211242F933F934F935F936F9347
:1004B0007F938F939F93AF93BF93EF93FF9381E2CB
:1004C00091E00E94DD00FF91EF91BF91AF919F916C
:1004D0008F917F916F915F914F913F912F910F90ED
:1004E0000FBE0F901F9018951F920F920FB60F928C
:1004F00011242F938F939F93EF93FF93E0913101FA
:10050000F09132018081E0913701F091380182FD54
:100510001BC0908180913A018F5F8F7320913B01C6
:10052000821741F0E0913A01F0E0EF5DFE4F958FC8
:1005300080933A01FF91EF919F918F912F910F90AE
:100540000FBE0F901F9018958081F4CF789484B5DA
:10055000826084BD84B5816084BD85B5826085BDBF
:1005600085B5816085BD80916E00816080936E004D
:10057000109281008091810082608093810080913F
:1005800081008160809381008091800081608093F0
:1005900080008091B10084608093B1008091B000B0
:1005A00081608093B00080917A00846080937A00AB
:1005B00080917A00826080937A0080917A008160D5
:1005C00080937A0080917A00806880937A001092FC
:1005D000C100E0913101F091320182E08083E0912D
:1005E0002D01F0912E011082E0912F01F091300148
:1005F0008FEC808310923901E0913501F091360142
:1006000086E08083E0913301F09134018081806144
:100610008083E0913301F091340180818860808390
:10062000E0913301F0913401808180688083E09112
:100630003301F091340180818F7D8083C12CD12CD6
:100640007601C394C6014F97059740F0C701B601E4
:100650000E94890182E191E00E946C018FEFC81A2B
:10066000D80AE80AF80A84E3C816D104E104F104C0
:1006700049F70E947901C12CD12C7601C394C7019E
:10068000B6010E94890182E191E00E946C018FEF26
:10069000C81AD80AE80AF80A8FE1C816D104E1049A
:1006A000F10469F70E947901C12CD12C7601C39421
:1006B000C701B6010E94890182E191E00E946C01AC
:1006C0008FEFC81AD80AE80AF80A80E2C816D104DF
:1006D000E104F10469F70E947901C12CD12C760163
:1006E000C394C701B6010E94890182E191E00E9492
:1006F0006C018FEFC81AD80AE80AF80A8FE1C81609
:10070000D104E104F10469F7C0E0D0E02097F1F3EF
:100710000E94C9008823D1F30E940000F7CFE1E2D4
:10072000F1E01382128288EE93E0A0E0B0E08483CF
:100730009583A683B78384E091E09183808385ECE1
:1007400090E09587848784EC90E09787868780EC9B
:1007500090E0918B808B81EC90E0938B828B82EC8C
:1007600090E0958B848B86EC90E0978B868B118E36
:10077000128E138E148E0895A1E21A2EAA1BBB1B93
:10078000FD010DC0AA1FBB1FEE1FFF1FA217B3075D
:10079000E407F50720F0A21BB30BE40BF50B661F73
:1007A000771F881F991F1A9469F760957095809537
:1007B00090959B01AC01BD01CF010895EE0FFF1F85
:0C07C0000590F491E02D0994F894FFCF0F
:1007CC0000000000FF005F008C004C01BD009B008E
:0807DC00AF0020000D0A00002F
:00000001FF
