:020000040000FA
:100000000C9462000C948A000C948A000C948A0070
:100010000C948A000C948A000C948A000C942E0391
:100020000C948A000C948A000C948A000C948A0028
:100030000C948A000C948A000C948A000C948A0018
:100040000C948C020C948A000C94FC020C94D60242
:100050000C948A000C948A000C948A000C948A00F8
:100060000C948A000C948A00000000080002010031
:100070000003040700000000000000000000000072
:10008000240027002A000000000023002600290089
:1000900000000000250028002B00040404040404D0
:1000A0000404020202020202030303030303010227
:1000B00004081020408001020408102001020408F6
:1000C0001020530311241FBECFEFD8E0DEBFCDBFF9
:1000D00011E0A0E0B1E0EEE2F0E102C005900D9287
:1000E000AC33B107D9F721E0ACE3B1E001C01D9218
:1000F000AD3FB207E1F710E0C2E6D0E004C02197BF
:10010000FE010E940F08C136D107C9F70E94D4032F
:100110000C9415080C940000E5E7F0E02491EBEB5B
:10012000F0E09491E7EAF0E0E491EE23C9F02223B5
:1001300039F0233001F1A8F4213019F1223029F1EE
:10014000F0E0EE0FFF1FE057FF4FA591B4912FB7DE
:10015000F894EC91811126C090959E239C932FBF1B
:1001600008952730A9F02830C9F0243049F72091AC
:1001700080002F7D03C0209180002F772093800086
:10018000DFCF24B52F7724BDDBCF24B52F7DFBCF68
:100190002091B0002F772093B000D2CF2091B000F3
:1001A0002F7DF9CF9E2BDACF3FB7F894809149018C
:1001B00090914A01A0914B01B0914C0126B5A89BAA
:1001C00005C02F3F19F00196A11DB11D3FBFBA2FE9
:1001D000A92F982F8827BC01CD01620F711D811DA9
:1001E000911D42E0660F771F881F991F4A95D1F72E
:1001F00008958F929F92AF92BF92CF92DF92EF922B
:10020000FF920E94D4004B015C0184E6C82ED12CE1
:10021000E12CF12C0E94D400681979098A099B0904
:10022000683E734081059105A8F321E0C21AD10808
:10023000E108F10888EE880E83E0981EA11CB11C2D
:10024000C114D104E104F10429F7FF90EF90DF908D
:10025000CF90BF90AF909F908F900895AF92BF9234
:10026000CF92DF92EF92FF920F931F93CF93DF9382
:100270006C017B018B01040F151FEB015E01AE18B1
:10028000BF08C017D10759F06991D601ED91FC91D3
:100290000190F081E02DC6010995892B79F7C50100
:1002A000DF91CF911F910F91FF90EF90DF90CF9052
:1002B000BF90AF900895FC01538D448D252F30E001
:1002C000842F90E0821B930B541710F0CF96089563
:1002D00001970895FC01918D828D981761F0A28D90
:1002E000AE0FBF2FB11D5D968C91928D9F5F9F7356
:1002F000928F90E008958FEF9FEF0895FC01918D0C
:10030000828D981731F0828DE80FF11D858D90E078
:1003100008958FEF9FEF0895FC01918D228D892F15
:1003200090E0805C9F4F821B91098F7399270895FD
:100330008DE491E00E948C0121E0892B09F420E0FA
:10034000822F089580E090E0892B29F00E94980187
:1003500081110C9400000895FC01A48DA80FB92F01
:10036000B11DA35ABF4F2C91848D90E001968F73DD
:100370009927848FA689B7892C93A089B1898C91FC
:10038000837080648C93938D848D981306C002884B
:10039000F389E02D80818F7D80830895EF92FF9215
:1003A0000F931F93CF93DF93EC0181E0888F9B8D98
:1003B0008C8D98131AC0E889F989808185FF15C052
:1003C0009FB7F894EE89FF896083E889F989808175
:1003D0008370806480839FBF81E090E0DF91CF9144
:1003E0001F910F91FF90EF900895F62E0B8D10E066
:1003F0000F5F1F4F0F731127E02E8C8D8E110CC0D5
:100400000FB607FCFACFE889F989808185FFF5CF1F
:10041000CE010E94AC01F1CFEB8DEC0FFD2FF11D51
:10042000E35AFF4FF0829FB7F8940B8FEA89FB895C
:1004300080818062CFCFCF93DF93EC01888D8823BA
:10044000B9F0AA89BB89E889F9898C9185FD03C037
:10045000808186FD0DC00FB607FCF7CF8C9185FF1C
:10046000F2CF808185FFEDCFCE010E94AC01E9CFB4
:10047000DF91CF910895FC0101900020E9F73197B9
:10048000AF01481B590BBC018DE491E00C942E0187
:100490008F929F92AF92BF920F931F93CF93DF9350
:1004A000CDB7DEB7A1970FB6F894DEBF0FBECDBFB4
:1004B00019A2423008F44AE08E010F5D1F4F842ECE
:1004C000912CB12CA12CA50194010E94ED07E62FDF
:1004D000B901CA01EA30F4F4E05DD801EE938D0170
:1004E000232B242B252B79F790E080E0109719F02F
:1004F000CD010E943B02A1960FB6F894DEBF0FBE5D
:10050000CDBFDF91CF911F910F91BF90AF909F9082
:100510008F900895E95CE1CF1F920F920FB60F9272
:1005200011242F933F938F939F93AF93BF93809109
:10053000450190914601A0914701B0914801309149
:10054000440123E0230F2D3758F50196A11DB11D5D
:10055000209344018093450190934601A093470165
:10056000B09348018091490190914A01A0914B01BB
:10057000B0914C010196A11DB11D8093490190934A
:100580004A01A0934B01B0934C01BF91AF919F9151
:100590008F913F912F910F900FBE0F901F90189544
:1005A00026E8230F0296A11DB11DD2CF1F920F92F4
:1005B0000FB60F9211242F933F934F935F936F9336
:1005C0007F938F939F93AF93BF93EF93FF938DE4AC
:1005D00091E00E94AC01FF91EF91BF91AF919F918B
:1005E0008F917F916F915F914F913F912F910F90DC
:1005F0000FBE0F901F9018951F920F920FB60F927B
:1006000011242F938F939F93EF93FF93E0915D01BC
:10061000F0915E018081E0916301F091640182FDBF
:100620001BC09081809166018F5F8F73209167015D
:10063000821741F0E0916601F0E0E35BFE4F958F99
:1006400080936601FF91EF919F918F912F910F9071
:100650000FBE0F901F9018958081F4CF1F920F92BC
:100660000FB60F9211242F933F934F935F936F9385
:100670007F938F939F93AF93BF93EF93FF93F0E09C
:10068000E0E00995FF91EF91BF91AF919F918F911C
:100690007F916F915F914F913F912F910F900FBE7E
:1006A0000F901F901895CF93DF93EDE4F1E0138244
:1006B000128288EE93E0A0E0B0E084839583A68365
:1006C000B78384E091E09183808385EC90E0958707
:1006D000848784EC90E09787868780EC90E0918B0C
:1006E000808B81EC90E0938B828B82EC90E0958BF9
:1006F000848B86EC90E0978B868B118E128E138EF6
:10070000148EE1EBF0E02491AAEEB1E014962C9364
:100710001497E2EBF0E0E4911596EC9315978DE9D0
:1007200090E0FC013491E32FF0E0EE0FFF1FE05763
:10073000FF4F4591549117965C934E931697EEE9AF
:10074000F0E0E491F0E0EE0FFF1FEA57FF4F459114
:10075000549119965C934E931897FC018491E82F5D
:10076000F0E0EE0FFF1FE458FF4FC591D4911B96A8
:10077000DC93CE931A9752961C92529789E499E58E
:100780001D969C938E931C97E8812E2B288316969A
:10079000ED91FC911797908114968C918095892307
:1007A0008083DF91CF910895789484B5826084BD71
:1007B00084B5816084BD85B5826085BD85B5816065
:1007C00085BD80916E00816080936E0010928100E3
:1007D000809181008260809381008091810081609E
:1007E000809381008091800081608093800080915F
:1007F000B10084608093B1008091B00081608093EB
:10080000B00080917A00846080937A0080917A00B1
:10081000826080937A0080917A00816080937A0070
:1008200080917A00806880937A001092C100E091F4
:100830005D01F0915E0182E08083E0915901F091C9
:100840005A011082E0915B01F0915C018FEC808392
:1008500010926501E0916101F091620186E0808370
:10086000E0915F01F0916001808180618083E0917F
:100870005F01F0916001808188608083E0915F0179
:10088000F0916001808180688083E0915F01F09148
:10089000600180818F7D8083EBEBF0E02491E7EABB
:1008A000F0E08491882399F090E0880F991FFC0173
:1008B000E458FF4FA591B491FC01E057FF4F85919B
:1008C00094918FB7F894EC91E22BEC938FBF0BE2ED
:1008D00010E089E3882E912CA12CB12CC0E0D0E04F
:1008E000E091F401F091F50180819091EE01892B66
:1008F0008083E091F001F091F10180819091EE010F
:10090000892B8083C8010197F1F7E091F001F09104
:10091000F10190818091EE018095892380838091FF
:10092000FC01882351F0E091F401F091F5019081F0
:100930008091EE01809589238083E091F201F0910E
:10094000F30180819091EF01892309F449C090E07F
:1009500080E0BC0190E080E0A50194010E94ED07D9
:10096000CA01B9010E94C40660934001709341011D
:10097000809342019093430182E191E00E943B0207
:10098000C0904001D0904101E0904201F0904301BD
:1009900020E030E048E453E4C701B6010E94760746
:1009A00087FF0BC020E030E040E050E4C701B60113
:1009B0000E94900618160CF485C08CE191E00E940C
:1009C0003B0289E291E00E943B02209709F488CF24
:1009D0000E949801882309F483CF0E94000080CFF1
:1009E0000E94D400AB01BC018091F6019091F70107
:1009F000B0E0A0E08855994EAF4FBF4F840F951FD0
:100A0000A61FB71F8093F8019093F901A093FA01F4
:100A1000B093FB01E091F201F091F301808190919C
:100A2000EF01892381F40E94D400C090F801D09096
:100A3000F901E090FA01F090FB01C616D706E8062E
:100A4000F90640F784CF0E94D4002091F60130913E
:100A5000F701620F731F811D911D6093F801709360
:100A6000F9018093FA019093FB01E091F201F0917A
:100A7000F30180819091EF01892381F00E94D400DD
:100A8000C090F801D090F901E090FA01F090FB01DC
:100A9000C616D706E806F90640F759CF0E94D400DB
:100AA0002091F6013091F701A9014550510920919B
:100AB000F8013091F901FA01E21BF30BCF01860F27
:100AC000971F47CFA7019601C701B6010E94E8070B
:100AD000882339F18CE291E00E943B0288E391E0A7
:100AE0000E943B0289E291E00E943B0220E030E05C
:100AF00040EA51E4609140017091410180914201CE
:100B0000909143010E94900687FF5FCF81E00E9491
:100B10008C000E94F90080E00E948C000E94F90085
:100B200054CF26013701E89477F82FEF3FEF4FE7D6
:100B30005FE7C301B2010E94E80781110DC02FEFEA
:100B40003FEF4FE75FE7C301B2010E94900618161E
:100B50001CF480E391E0C0CF2FEF3FEF4FE75FE45D
:100B6000C701B6010E94760718161CF484E391E0D1
:100B7000B3CF2FEF3FEF4FE75FECC701B6010E9405
:100B8000900687FDF3CF20E030E0A901C701B60150
:100B90000E94900687FF09C06DE28DE491E00E94FB
:100BA000CE01F7FAF094F7F8F0942AE037ED43EA33
:100BB0005BE3C701B6010E9424062B013C010E94A1
:100BC00095066B017C010E94C4069B01AC01C30128
:100BD000B2010E9423062B013C014AE0C701B60185
:100BE0000E9448026EE28DE491E00E94CE0120E076
:100BF00030E040E251E4C301B2010E947B072B01C7
:100C00003C010E9495066B01F12CE12C4AE0C701E2
:100C1000B6010E944802C701B6010E94C4069B01AA
:100C2000AC01C301B2010E94230620E030E040E2A3
:100C300051E40E947B070E94950690E080E04AE024
:100C40000E9448024BCF5058BB27AA270E943B0660
:100C50000C943C070E942E0738F00E94350720F0C4
:100C600039F49F3F19F426F40C942B070EF4E09509
:100C7000E7FB0C942507E92F0E944D0758F3BA179C
:100C8000620773078407950720F079F4A6F50C94A2
:100C90006F070EF4E0950B2EBA2FA02D0B01B901B2
:100CA00090010C01CA01A0011124FF27591B99F0E2
:100CB000593F50F4503E68F11A16F040A22F232FEE
:100CC000342F4427585FF3CF469537952795A7953E
:100CD000F0405395C9F77EF41F16BA0B620B730BE5
:100CE000840BBAF09150A1F0FF0FBB1F661F771F56
:100CF000881FC2F70EC0BA0F621F731F841F48F40B
:100D0000879577956795B795F7959E3F08F0B0CF93
:100D10009395880F08F09927EE0F9795879508957A
:100D20000E94010708F481E008950E94550788F0A9
:100D30009F5798F0B92F9927B751B0F0E1F0660F9F
:100D4000771F881F991F1AF0BA95C9F714C0B130E0
:100D500091F00E946F07B1E008950C946F07672F20
:100D6000782F8827B85F39F0B93FCCF3869577950F
:100D70006795B395D9F73EF49095809570956195F8
:100D80007F4F8F4F9F4F0895E89409C097FB3EF423
:100D900090958095709561957F4F8F4F9F4F9923C8
:100DA000A9F0F92F96E9BB279395F6958795779546
:100DB0006795B795F111F8CFFAF4BB0F11F460FF06
:100DC0001BC06F5F7F4F8F4F9F4F16C0882311F05E
:100DD00096E911C0772321F09EE8872F762F05C072
:100DE000662371F096E8862F70E060E02AF09A950D
:100DF000660F771F881FDAF7880F9695879597F902
:100E00000895990F0008550FAA0BE0E8FEEF16169B
:100E10001706E807F907C0F012161306E407F507EE
:100E200098F0621B730B840B950B39F40A2661F062
:100E3000232B242B252B21F408950A2609F4A14005
:100E4000A6958FEF811D811D089597F99F6780E812
:100E500070E060E008959FEF80EC089500240A940C
:100E60001616170618060906089500240A94121685
:100E70001306140605060895092E0394000C11F4B8
:100E8000882352F0BB0F40F4BF2B11F460FF04C065
:100E90006F5F7F4F8F4F9F4F089557FD9058440FBE
:100EA000551F59F05F3F71F04795880F97FB991FC9
:100EB00061F09F3F79F08795089512161306140686
:100EC000551FF2CF4695F1DF08C016161706180613
:100ED000991FF1CF86957105610508940895E894EE
:100EE000BB2766277727CB0197F908950E94010752
:100EF00008F48FEF08950E948E070C943C070E941F
:100F00002E0738F00E94350720F0952311F00C943D
:100F100025070C942B0711240C9470070E944D0791
:100F200070F3959FC1F3950F50E0551F629FF0013C
:100F3000729FBB27F00DB11D639FAA27F00DB11D55
:100F4000AA1F649F6627B00DA11D661F829F2227DE
:100F5000B00DA11D621F739FB00DA11D621F839F65
:100F6000A00D611D221F749F3327A00D611D231F3B
:100F7000849F600D211D822F762F6A2F11249F5789
:100F800050409AF0F1F088234AF0EE0FFF1FBB1F8C
:100F9000661F771F881F91505040A9F79E3F51054B
:100FA00080F00C9425070C9470075F3FE4F3983EA3
:100FB000D4F3869577956795B795F795E7959F5FF5
:100FC000C1F7FE2B880F911D9695879597F9089587
:100FD0000E940107880B990B0895A1E21A2EAA1B03
:100FE000BB1BFD010DC0AA1FBB1FEE1FFF1FA217D9
:100FF000B307E407F50720F0A21BB30BE40BF50BD6
:10100000661F771F881F991F1A9469F7609570955E
:10101000809590959B01AC01BD01CF010895EE0F25
:10102000FF1F0590F491E02D0994F894FFCF000084
:101030000000CE012E015B011B028C016A017E01C2
:101040004D6573616665203D20004F7574206F66A5
:101050002072616E6765000D0A006E616E00696E38
:0A10600066006F76660020636D00E5
:107E0000112484B714BE81FFF0D085E080938100F7
:107E100082E08093C00088E18093C10086E0809377
:107E2000C20080E18093C4008EE0C9D0259A86E02C
:107E300020E33CEF91E0309385002093840096BBD3
:107E4000B09BFECF1D9AA8958150A9F7CC24DD24C4
:107E500088248394B5E0AB2EA1E19A2EF3E0BF2EE7
:107E6000A2D0813461F49FD0082FAFD0023811F036
:107E7000013811F484E001C083E08DD089C08234E0
:107E800011F484E103C0853419F485E0A6D080C0E4
:107E9000853579F488D0E82EFF2485D0082F10E0AE
:107EA000102F00270E291F29000F111F8ED06801E7
:107EB0006FC0863521F484E090D080E0DECF843638
:107EC00009F040C070D06FD0082F6DD080E0C81688
:107ED00080E7D80618F4F601B7BEE895C0E0D1E017
:107EE00062D089930C17E1F7F0E0CF16F0E7DF06D8
:107EF00018F0F601B7BEE89568D007B600FCFDCFD4
:107F0000A601A0E0B1E02C9130E011968C91119780
:107F100090E0982F8827822B932B1296FA010C0160
:107F200087BEE89511244E5F5F4FF1E0A038BF0790
:107F300051F7F601A7BEE89507B600FCFDCF97BE46
:107F4000E89526C08437B1F42ED02DD0F82E2BD052
:107F50003CD0F601EF2C8F010F5F1F4F84911BD097
:107F6000EA94F801C1F70894C11CD11CFA94CF0C13
:107F7000D11C0EC0853739F428D08EE10CD085E9AC
:107F80000AD08FE07ACF813511F488E018D01DD067
:107F900080E101D065CF982F8091C00085FFFCCF94
:107FA0009093C60008958091C00087FFFCCF809118
:107FB000C00084FD01C0A8958091C6000895E0E648
:107FC000F0E098E1908380830895EDDF803219F02E
:107FD00088E0F5DFFFCF84E1DECF1F93182FE3DFCA
:107FE0001150E9F7F2DF1F91089580E0E8DFEE27F6
:047FF000FF270994CA
:027FFE00040479
:00000001FF
