:020000040000FA
:100000000C9462000C948A000C948A000C948A0070
:100010000C948A000C948A000C948A000C948A0038
:100020000C948A000C948A000C948A000C948A0028
:100030000C948A000C948A000C948A000C948A0018
:100040000C9425030C948A000C9495030C946F0374
:100050000C948A000C948A000C948A000C948A00F8
:100060000C948A000C948A000000000024002700F1
:100070002A0000000000250028002B0000000000DE
:1000800023002600290004040404040404040202DA
:100090000202020203030303030301020408102007
:1000A0004080010204081020010204081020000012
:1000B0000008000201000003040700000000000027
:1000C0000000C70311241FBECFEFD8E0DEBFCDBFB5
:1000D00011E0A0E0B1E0E4E9FFE002C005900D927C
:1000E000AA35B107D9F722E0AAE5B1E001C01D9217
:1000F000A437B207E1F710E0C2E6D0E004C02197D0
:10010000FE010E94C207C136D107C9F70E945504FB
:100110000C94C8070C94000096E0899FD00111242C
:10012000AB5FBD4F90967C936E935F9791E09196F5
:100130009C939197E0917202F091730290917102F9
:10014000992339F0309751F0811108C08091210234
:100150000994309719F05C968C91FACF0895CF925C
:10016000DF92EF92FF920F931F9396E0899FF00129
:100170001124EB5FFD4F11A2278D30A121303105F5
:1001800051F178F02230310509F451C023303105A6
:1001900009F452C01F910F91FF90EF90DF90CF9024
:1001A00008956623B9F361E070E00E948C002FB7D8
:1001B000F8948091640190916501A0916601B091DD
:1001C00067012FBF80935D0290935E02A0935F0250
:1001D000B0936002DFCF9FB7F894C0906401D090D5
:1001E0006501E0906601F09067019FBF00915D029C
:1001F00010915E0220915F0230916002C01AD10A14
:10020000E20AF30A00916F021091700230E020E0E0
:100210000C151D052E053F0550F462E070E01F919E
:100220000F91FF90EF90DF90CF900C948C006111B4
:10023000B1CF63E070E0F3CF70E060E0F0CF8330E7
:1002400081F028F4813099F08230A9F00895873048
:10025000A9F08830C9F08430B1F4809180008F7D9E
:1002600003C0809180008F7780938000089584B5CB
:100270008F7784BD089584B58F7DFBCF8091B000CA
:100280008F778093B00008958091B0008F7DF9CF73
:10029000CF93DF93282F30E0F901E255FF4F84918F
:1002A000F901E656FF4FD491F901EA57FF4FC49187
:1002B000CC23A1F081110E941F01EC2FF0E0EE0F82
:1002C000FF1FE458FF4FA591B491EC91ED2381E01D
:1002D00090E009F480E0DF91CF91089580E090E014
:1002E000FACF1F93CF93DF93282F30E0F901E25527
:1002F000FF4F8491F901E656FF4FD491F901EA5777
:10030000FF4FC491CC23A9F0162F81110E941F0129
:10031000EC2FF0E0EE0FFF1FEE58FF4FA591B491C8
:100320008FB7F894EC91111108C0D095DE23DC93BF
:100330008FBFDF91CF911F910895DE2BF8CFCF9320
:10034000DF9390E0FC01E656FF4F24918A579F4FC0
:10035000FC0184918823C9F090E0880F991FFC016B
:10036000E859FF4FA591B491FC01EE58FF4FC5919C
:10037000D49161110DC09FB7F8948C912095822380
:100380008C938881282328839FBFDF91CF91089584
:10039000623051F49FB7F8943C91822F809583236B
:1003A0008C93E8812E2BEFCF8FB7F894EC912E2B06
:1003B0002C938FBFEACF3FB7F89480916001909162
:1003C0006101A0916201B091630126B5A89B05C0AF
:1003D0002F3F19F00196A11DB11D3FBFBA2FA92FC4
:1003E000982F8827BC01CD01620F711D811D911DC1
:1003F00042E0660F771F881F991F4A95D1F708952D
:10040000862F642F0C949F01862F642F0C9471010A
:10041000862F0C944801AF92BF92CF92DF92EF9259
:10042000FF920F931F93CF93DF936C017B018B019E
:10043000040F151FEB015E01AE18BF08C017D107EE
:1004400059F06991D601ED91FC910190F081E02D78
:10045000C6010995892B79F7C501DF91CF911F91CD
:100460000F91FF90EF90DF90CF90BF90AF900895E5
:10047000FC01538D448D252F30E0842F90E0821BAA
:10048000930B541710F0CF96089501970895FC012F
:10049000918D828D981761F0A28DAE0FBF2FB11D87
:1004A0005D968C91928D9F5F9F73928F90E00895DF
:1004B0008FEF9FEF0895FC01918D828D981731F099
:1004C000828DE80FF11D858D90E008958FEF9FEFED
:1004D0000895FC01918D228D892F90E0805C9F4FC3
:1004E000821B91098F739927089588E691E00E94F5
:1004F000690221E0892B09F420E0822F089580E031
:1005000090E0892B29F00E94750281110C94000063
:100510000895FC01A48DA80FB92FB11DA35ABF4F98
:100520002C91848D90E001968F739927848FA689F2
:10053000B7892C93A089B1898C91837080648C9346
:10054000938D848D981306C00288F389E02D8081F5
:100550008F7D80830895EF92FF920F931F93CF9327
:10056000DF93EC0181E0888F9B8D8C8D98131AC0EE
:10057000E889F989808185FF15C09FB7F894EE89D5
:10058000FF896083E889F989808183708064808332
:100590009FBF81E090E0DF91CF911F910F91FF907D
:1005A000EF900895F62E0B8D10E00F5F1F4F0F7325
:1005B0001127E02E8C8D8E110CC00FB607FCFACFE0
:1005C000E889F989808185FFF5CFCE010E948902F3
:1005D000F1CFEB8DEC0FFD2FF11DE35AFF4FF082B1
:1005E0009FB7F8940B8FEA89FB8980818062CFCF17
:1005F000CF93DF93EC01888D8823B9F0AA89BB895A
:10060000E889F9898C9185FD03C0808186FD0DC044
:100610000FB607FCF7CF8C9185FFF2CF808185FF65
:10062000EDCFCE010E948902E9CFDF91CF910895ED
:10063000FC0101900020E9F73197AF01481B590BED
:10064000BC0188E691E00C940B021F920F920FB64A
:100650000F9211242F933F938F939F93AF93BF9348
:100660008091640190916501A0916601B09167014C
:1006700030915F0123E0230F2D3758F50196A11D1E
:10068000B11D20935F018093640190936501A09355
:100690006601B09367018091600190916101A09122
:1006A0006201B09163010196A11DB11D80936001AB
:1006B00090936101A0936201B0936301BF91AF91E8
:1006C0009F918F913F912F910F900FBE0F901F9090
:1006D000189526E8230F0296A11DB11DD2CF1F92B7
:1006E0000F920FB60F9211242F933F934F935F9366
:1006F0006F937F938F939F93AF93BF93EF93FF93EA
:1007000088E691E00E948902FF91EF91BF91AF913D
:100710009F918F917F916F915F914F913F912F9119
:100720000F900FBE0F901F9018951F920F920FB64B
:100730000F9211242F938F939F93EF93FF93E09148
:100740007801F09179018081E0917E01F0917F0143
:1007500082FD1BC09081809181018F5F8F732091FA
:100760008201821741F0E0918101F0E0E859FE4FEB
:10077000958F80938101FF91EF919F918F912F91A0
:100780000F900FBE0F901F9018958081F4CF10929C
:100790006B0110926A0188EE93E0A0E0B0E08093D4
:1007A0006C0190936D01A0936E01B0936F018BE18A
:1007B00091E0909369018093680185EC90E09093BB
:1007C00075018093740184EC90E09093770180939D
:1007D000760180EC90E0909379018093780181EC30
:1007E00090E090937B0180937A0182EC90E090936B
:1007F0007D0180937C0186EC90E090937F01809353
:100800007E01109281011092820110928301109258
:1008100084011092070210920B0210920A021092A9
:100820000C028DE291E09093060280930502E1E2D2
:10083000F2E01082148213821582369682E0ED3542
:10084000F807B9F783E091E090936802809367021C
:1008500080E091E090936A028093690284E0809343
:100860006B0283E080936C0287E091E090936602D4
:10087000809365028AE090E090936E0280936D020F
:1008800084EF91E09093700280936F021092730254
:100890001092720210926102109262021092630230
:1008A00010926402109271020895CF93DF93CDB736
:1008B000DEB7A1970FB6F894DEBF0FBECDBF789418
:1008C00084B5826084BD84B5816084BD85B5826055
:1008D00085BD85B5816085BD80916E008160809306
:1008E0006E0010928100809181008260809381006F
:1008F000809181008160809381008091800081607F
:10090000809380008091B10084608093B1008091D9
:10091000B00081608093B00080917A008460809301
:100920007A0080917A00826080937A0080917A00C8
:10093000816080937A0080917A00806880937A0049
:100940001092C100E0917801F091790182E08083FA
:10095000E0917401F09175011082E0917601F091BF
:1009600077018FEC808310928001E0917C01F091FF
:100970007D0186E08083E0917A01F0917B018081A6
:1009800080618083E0917A01F0917B0180818860B1
:100990008083E0917A01F0917B018081806880837F
:1009A000E0917A01F0917B0180818F7D808383E3E8
:1009B00091E00E94180387E591E00E94180359E036
:1009C000852E912CA12CB12C60E0262E60E0362ED5
:1009D00021E0209371028FB7F89440916401509107
:1009E000650160916601709167018FBF809161021E
:1009F00090916202A0916302B0916402481B590B6E
:100A00006A0B7B0B80916D0290916E02B0E0A0E0CA
:100A100084179507A607B70708F013C110E0809167
:100A20006B02181760F4E0916702F0916802E10F21
:100A3000F11D62E080810E949F011F5FF0CF712C49
:100A400080916C02781608F065C0072D10E0E091E7
:100A50006902F0916A02E00FF11F61E080810E945B
:100A60009F01E0916902F0916A02E00FF11F60E0DE
:100A700080810E947101C12CD12C7601C394072C76
:100A800004C0CC0CDD1CEE1CFF1C0A94D2F726011E
:100A9000C094D094612C80916B02681620F5E62CEE
:100AA000F12CE0916702F0916802EE0DFF1D80814C
:100AB0000E944801F7013496892B61F4EE0FFF1F65
:100AC000EB5FFD4F808191818429952991838083FB
:100AD0006394E1CFEE0FFF1FEB5FFD4F80819181AB
:100AE0008C219D21F3CFE0916902F0916A02E00F21
:100AF000F11F61E080810E947101809169029091F3
:100B00006A02080F191F60E0F80180810E949F01AE
:100B1000739496CF05E012E0F801878D90A1892BA0
:100B200031F4148E2FEF3FEF368F258F11A23696BA
:100B300032E0E134F30789F7F12C80916B02F8166B
:100B400008F053C0E12CCF2CD12CCC0CDD1CC601FD
:100B5000835F9D4F6C0120916C02E21608F043C048
:100B6000F601608171810E2C02C0769567950A941A
:100B7000E2F7F29E900111242E0D311DE5E0F2E026
:100B800080E0458D568D2417350709F4F2C08F5F3C
:100B900036968A30B1F760FF24C0E5E0F2E090E0DD
:100BA00080E0448D411118C0E0916502F091660229
:100BB000E20FF31F408156E0589FF001599FF00D5E
:100BC0001124EB5FFD4F448F368F258F10A2178EB7
:100BD00061E00E94AF0005C0019636968A3091050B
:100BE00001F7E394B8CFF394A8CF80E0F80191A186
:100BF0009111892F0A5F1F4FF2E001341F07B1F7EF
:100C00009FB7F8944091640150916501609166012D
:100C1000709167019FBF409361025093620260939D
:100C2000630270936402882361F080912602882316
:100C300041F08091240290912502109121020197A8
:100C400019F01092710210E0812F012E000C990B07
:100C5000C0970A9788F580915D0190915E01FC0133
:100C6000E65AFE4F1083019690935E0180935D01DA
:100C70000E94DB012B013C0184E1C82ED12CE12C28
:100C8000F12C0E94DB016419750986099709683EF9
:100C9000734081059105A8F321E0C21AD108E1084B
:100CA000F10838EE430E33E0531E611C711CC11471
:100CB000D104E104F10429F71D3309F04AC0109270
:100CC0005E0110925D010AE511E0F80161918F016A
:100CD00088E691E00E94AB02F801319720E2208380
:100CE00031E00D35130789F785E591E00E9418037F
:100CF00087E591E00E9418030E940707A50194016F
:100D00000E945F076B017C01DC01CB010196A11DF4
:100D1000B11DB7FF2AC06DE288E691E00E94AB02E8
:100D200019A2C094D094E094F09450E3C50EC8A2E8
:100D3000CE0180960E94180387E591E00E94180377
:100D40006DE388E691E00E94AB0287E591E00E94A6
:100D500018032114310409F43BCE0E947502882344
:100D600009F436CE0E94000033CE19A2805D88A31C
:100D7000DFCF61702ECF8F929F92AF92BF92CF92B2
:100D8000DF92EF92FF92CF93DF93EC01688179813C
:100D90008A819B81611571058105910521F464E2C9
:100DA00079ED8BE597E02DE133EF41E050E00E94D3
:100DB0005F0749015A019B01AC01A7EAB1E40E9417
:100DC0007E076B017C01ACEEB4EFA50194010E949B
:100DD0008C07C60ED71EE81EF91EF7FE06C081E07E
:100DE000C81AD108E10880E8F80AC882D982EA82E4
:100DF000FB82C701B6019F77DF91CF91FF90EF9003
:100E0000DF90CF90BF90AF909F908F9008958F927A
:100E10009F92AF92BF92CF92DF92EF92FF9260913A
:100E200013017091140180911501909116016115C3
:100E300071058105910521F464E279ED8BE597E078
:100E40002DE133EF41E050E00E945F0749015A0174
:100E50009B01AC01A7EAB1E40E947E076B017C0113
:100E6000ACEEB4EFA50194010E948C07C60ED71E0C
:100E7000E81EF91EF7FE06C081E0C81AD108E10895
:100E800080E8F80AC0921301D0921401E092150193
:100E9000F0921601C701B6019F77FF90EF90DF90A7
:100EA000CF90BF90AF909F908F9008956093130163
:100EB0007093140180931501909316010895052EE7
:100EC00097FB1EF400940E94760757FD07D00E94FE
:100ED000910707FC03D04EF40C947607509540958B
:100EE000309521953F4F4F4F5F4F089590958095D6
:100EF000709561957F4F8F4F9F4F08950E94B30764
:100F0000A59F900DB49F900DA49F800D911D11245D
:100F10000895B7FF0C947E070E947E07821B930BF7
:100F20000895A1E21A2EAA1BBB1BFD010DC0AA1F2A
:100F3000BB1FEE1FFF1FA217B307E407F50720F042
:100F4000A21BB30BE40BF50B661F771F881F991FBD
:100F50001A9469F760957095809590959B01AC0106
:100F6000BD01CF010895A29FB001B39FC001A39F0F
:100F7000700D811D1124911DB29F700D811D1124D2
:100F8000911D0895EE0FFF1F0590F491E02D099437
:100F9000F894FFCF0C0B0A090807063132333435B9
:100FA0003637383923303D0100000000000000AB27
:100FB000020B023802F802690247025B02000000DD
:100FC00000000204020802312D31303020617261CC
:100FD00073C4B16E64612062697220736179C4B1B7
:0E0FE00020676972696E697A3A20000D0A0076
:107E0000112484B714BE81FFF0D085E080938100F7
:107E100082E08093C00088E18093C10086E0809377
:107E2000C20080E18093C4008EE0C9D0259A86E02C
:107E300020E33CEF91E0309385002093840096BBD3
:107E4000B09BFECF1D9AA8958150A9F7CC24DD24C4
:107E500088248394B5E0AB2EA1E19A2EF3E0BF2EE7
:107E6000A2D0813461F49FD0082FAFD0023811F036
:107E7000013811F484E001C083E08DD089C08234E0
:107E800011F484E103C0853419F485E0A6D080C0E4
:107E9000853579F488D0E82EFF2485D0082F10E0AE
:107EA000102F00270E291F29000F111F8ED06801E7
:107EB0006FC0863521F484E090D080E0DECF843638
:107EC00009F040C070D06FD0082F6DD080E0C81688
:107ED00080E7D80618F4F601B7BEE895C0E0D1E017
:107EE00062D089930C17E1F7F0E0CF16F0E7DF06D8
:107EF00018F0F601B7BEE89568D007B600FCFDCFD4
:107F0000A601A0E0B1E02C9130E011968C91119780
:107F100090E0982F8827822B932B1296FA010C0160
:107F200087BEE89511244E5F5F4FF1E0A038BF0790
:107F300051F7F601A7BEE89507B600FCFDCF97BE46
:107F4000E89526C08437B1F42ED02DD0F82E2BD052
:107F50003CD0F601EF2C8F010F5F1F4F84911BD097
:107F6000EA94F801C1F70894C11CD11CFA94CF0C13
:107F7000D11C0EC0853739F428D08EE10CD085E9AC
:107F80000AD08FE07ACF813511F488E018D01DD067
:107F900080E101D065CF982F8091C00085FFFCCF94
:107FA0009093C60008958091C00087FFFCCF809118
:107FB000C00084FD01C0A8958091C6000895E0E648
:107FC000F0E098E1908380830895EDDF803219F02E
:107FD00088E0F5DFFFCF84E1DECF1F93182FE3DFCA
:107FE0001150E9F7F2DF1F91089580E0E8DFEE27F6
:047FF000FF270994CA
:027FFE00040479
:00000001FF
