:100000000C9435000C945D000C945D000C945D0024
:100010000C945D000C945D000C945D000C945D00EC
:100020000C945D000C945D000C945D000C945D00DC
:100030000C945D000C945D000C945D000C945D00CC
:100040000C94F2010C945D000C9462020C943C023E
:100050000C945D000C945D000C945D000C945D00AC
:100060000C945D000C945D00AC0311241FBECFEF17
:10007000D8E0DEBFCDBF11E0A0E0B1E0E6E0F8E0FF
:1000800002C005900D92AA34B107D9F721E0AAE485
:10009000B1E001C01D92A03FB207E1F710E0C5E357
:1000A000D0E004C02197FE010E94FB03C433D107B6
:1000B000C9F70E9494020C9401040C9400003FB70D
:1000C000F89480914F0190915001A0915101B0910D
:1000D000520126B5A89B05C02F3F19F00196A11D1E
:1000E000B11D3FBFBA2FA92F982F8827BC01CD0182
:1000F000620F711D811D911D42E0660F771F881FE1
:10010000991F4A95D1F70895AF92BF92CF92DF928F
:10011000EF92FF920F931F93CF93DF936C017B01BC
:100120008B01040F151FEB015E01AE18BF08C0174D
:10013000D10759F06991D601ED91FC910190F081C0
:10014000E02DC6010995892B79F7C501DF91CF9183
:100150001F910F91FF90EF90DF90CF90BF90AF90E5
:100160000895FC01538D448D252F30E0842F90E0BD
:10017000821B930B541710F0CF96089501970895A2
:10018000FC01918D828D981761F0A28DAE0FBF2F6B
:10019000B11D5D968C91928D9F5F9F73928F90E0C1
:1001A00008958FEF9FEF0895FC01918D828D981730
:1001B00031F0828DE80FF11D858D90E008958FEF6D
:1001C0009FEF0895FC01918D228D892F90E0805C36
:1001D0009F4F821B91098F739927089583E591E0C2
:1001E0000E94E20021E0892B09F420E0822F08958B
:1001F00080E090E0892B29F00E94EE0081110C94A0
:1002000000000895FC01A48DA80FB92FB11DA35AB9
:10021000BF4F2C91848D90E001968F739927848F26
:10022000A689B7892C93A089B1898C918370806449
:100230008C93938D848D981306C00288F389E02DEA
:1002400080818F7D80830895EF92FF920F931F939B
:10025000CF93DF93EC0181E0888F9B8D8C8D981379
:100260001AC0E889F989808185FF15C09FB7F89485
:10027000EE89FF896083E889F989808183708064D1
:1002800080839FBF81E090E0DF91CF911F910F911C
:10029000FF90EF900895F62E0B8D10E00F5F1F4F2B
:1002A0000F731127E02E8C8D8E110CC00FB607FC3A
:1002B000FACFE889F989808185FFF5CFCE010E94C8
:1002C0000201F1CFEB8DEC0FFD2FF11DE35AFF4F33
:1002D000F0829FB7F8940B8FEA89FB898081806256
:1002E000CFCFCF93DF93EC01888D8823B9F0AA8913
:1002F000BB89E889F9898C9185FD03C0808186FDE1
:100300000DC00FB607FCF7CF8C9185FFF2CF80812F
:1003100085FFEDCFCE010E940201E9CFDF91CF91A1
:100320000895FC0101900020E9F73197AF01481BC7
:10033000590BBC0183E591E00C9484008F929F924D
:10034000AF92BF920F931F93CF93DF93CDB7DEB7DA
:10035000A1970FB6F894DEBF0FBECDBF19A24230F1
:1003600008F44AE08E010F5D1F4F842E912CB12CB2
:10037000A12CA50194010E94D903E62FB901CA015D
:10038000EA30F4F4E05DD801EE938D01232B242BA9
:10039000252B79F790E080E0109719F0CD010E94AD
:1003A0009101A1960FB6F894DEBF0FBECDBFDF91CD
:1003B000CF911F910F91BF90AF909F908F90089514
:1003C000E95CE1CFCF93DF9385E491E00E94910156
:1003D000EC0187E491E00E9491018C0F9D1FDF9159
:1003E000CF9108951F920F920FB60F9211242F9361
:1003F0003F938F939F93AF93BF9380914B019091C5
:100400004C01A0914D01B0914E0130914A0123E081
:10041000230F2D3758F50196A11DB11D20934A01D8
:1004200080934B0190934C01A0934D01B0934E01EA
:1004300080914F0190915001A0915101B0915201D2
:100440000196A11DB11D80934F0190935001A0937F
:100450005101B0935201BF91AF919F918F913F9104
:100460002F910F900FBE0F901F90189526E8230F25
:100470000296A11DB11DD2CF1F920F920FB60F92FF
:1004800011242F933F934F935F936F937F938F9399
:100490009F93AF93BF93EF93FF9383E591E00E9407
:1004A0000201FF91EF91BF91AF919F918F917F9149
:1004B0006F915F914F913F912F910F900FBE0F90D1
:1004C0001F9018951F920F920FB60F9211242F9321
:1004D0008F939F93EF93FF93E0916301F0916401F9
:1004E0008081E0916901F0916A0182FD1BC09081D9
:1004F00080916C018F5F8F7320916D01821741F0A5
:10050000E0916C01F0E0ED5AFE4F958F80936C0105
:10051000FF91EF919F918F912F910F900FBE0F90B0
:100520001F9018958081F4CFCF93DF93CDB7DEB7BE
:10053000E2970FB6F894DEBF0FBECDBF789484B5B6
:10054000826084BD84B5816084BD85B5826085BDCF
:1005500085B5816085BD80916E00816080936E005D
:10056000109281008091810082608093810080914F
:100570008100816080938100809180008160809300
:1005800080008091B10084608093B1008091B000C0
:1005900081608093B00080917A00846080937A00BB
:1005A00080917A00826080937A0080917A008160E5
:1005B00080937A0080917A00806880937A0010920C
:1005C000C100E0916301F091640182E08083E091D9
:1005D0005F01F09160011082E0916101F091620190
:1005E0008FEC808310926B01E0916701F0916801BC
:1005F00086E08083E0916501F091660180818061F1
:100600008083E0916501F09166018081886080833C
:10061000E0916501F0916601808180688083E091BE
:100620006501F091660180818F7D80836E0123E3F7
:10063000C20ED11C90E0292E90E0392E82E3E0E03A
:10064000F1E0DE01119601900D928A95E1F7CE015D
:1006500001967C013C01F30161913F01062E000CE3
:10066000770B880B990B42E00E949E0185E491E094
:100670000E949101C614D70471F70E94E2018E0115
:100680000F5F1F4FF80161918F01062E000C770B51
:10069000880B990B40E10E949E0185E491E00E9445
:1006A00091010615170571F70E94E201F7014190CB
:1006B0007F01042C000C5508660877084AE0C30146
:1006C000B20177FE0DC06DE283E591E00E94240146
:1006D00066277727CB0164197509860997094AE0CF
:1006E0000E949E0185E491E00E9491010E151F0574
:1006F000E9F60E94E2010E945F004B015C0188EE76
:10070000482E83E0582E612C712C0E945F006819DE
:1007100079098A099B09683E734081059105A8F310
:10072000F1E04F1A51086108710828EE820E23E0AB
:10073000921EA11CB11C411451046104710429F7DB
:100740002114310409F47ACF0E94EE00882309F4C1
:1007500075CF0E94000072CFE3E5F1E013821282B0
:1007600088EE93E0A0E0B0E084839583A683B7830E
:1007700087E391E09183808385EC90E0958784877F
:1007800084EC90E09787868780EC90E0918B808B5B
:1007900081EC90E0938B828B82EC90E0958B848B44
:1007A00086EC90E0978B868B118E128E138E148EB2
:1007B0000895A1E21A2EAA1BBB1BFD010DC0AA1FA2
:1007C000BB1FEE1FFF1FA217B307E407F50720F0BA
:1007D000A21BB30BE40BF50B661F771F881F991F35
:1007E0001A9469F760957095809590959B01AC017E
:1007F000BD01CF010895EE0FFF1F0590F491E02D8C
:060800000994F894FFCFFB
:100806006162636465666768696A6B6C6D6E6F705A
:100816007273747576797A777141424344454647D7
:1008260048494A4B4C4D4E4F505253545556595ABF
:100836005751000000000024018400B1007101E25C
:0A08460000C000D40020000D0A00DD
:00000001FF
