:100000000C9462000C948A000C948A000C948A0070
:100010000C948A000C948A000C948A000C948A0038
:100020000C948A000C948A000C948A000C948A0028
:100030000C948A000C948A000C948A000C948A0018
:100040000C94F3020C948A000C9463030C943D030B
:100050000C948A000C948A000C948A000C948A00F8
:100060000C948A000C948A000000000024002700F1
:100070002A0000000000250028002B0000000000DE
:1000800023002600290004040404040404040202DA
:100090000202020203030303030301020408102007
:1000A0004080010204081020010204081020000012
:1000B0000008000201000003040700000000000027
:1000C0000000950311241FBECFEFD8E0DEBFCDBFE7
:1000D00011E0A0E0B1E0EAEFFBE002C005900D9274
:1000E000A233B107D9F722E0A2E3B1E001C01D922B
:1000F000A734B207E1F710E0C2E6D0E004C02197D0
:10010000FE010E94F505C136D107C9F70E942304FC
:100110000C94FB050C94000096E0899FD0011124FB
:10012000A852BE4F90967C936E935F9791E0919604
:100130009C939197E0914502F09146029091440280
:10014000992339F0309751F0811108C08091F40162
:100150000994309719F05C968C91FACF0895CF925C
:10016000DF92EF92FF920F931F9396E0899FF00129
:100170001124E852FE4F11A2278D30A12130310504
:1001800051F178F02230310509F451C023303105A6
:1001900009F452C01F910F91FF90EF90DF90CF9024
:1001A00008956623B9F361E070E00E948C002FB7D8
:1001B000F8948091370190913801A0913901B09164
:1001C0003A012FBF8093300290933102A093320204
:1001D000B0933302DFCF9FB7F894C0903701D0902F
:1001E0003801E0903901F0903A019FBF0091300250
:1001F000109131022091320230913302C01AD10A9B
:10020000E20AF30A009142021091430230E020E03A
:100210000C151D052E053F0550F462E070E01F919E
:100220000F91FF90EF90DF90CF900C948C006111B4
:10023000B1CF63E070E0F3CF70E060E0F0CF8330E7
:1002400081F028F4813099F08230A9F00895873048
:10025000A9F08830C9F08430B1F4809180008F7D9E
:1002600003C0809180008F7780938000089584B5CB
:100270008F7784BD089584B58F7DFBCF8091B000CA
:100280008F778093B00008958091B0008F7DF9CF73
:10029000CF93DF93282F30E0F901E255FF4F84918F
:1002A000F901E656FF4FD491F901EA57FF4FC49187
:1002B000CC23A1F081110E941F01EC2FF0E0EE0F82
:1002C000FF1FE458FF4FA591B491EC91ED2381E01D
:1002D00090E009F480E0DF91CF91089580E090E014
:1002E000FACF1F93CF93DF93282F30E0F901E25527
:1002F000FF4F8491F901E656FF4FD491F901EA5777
:10030000FF4FC491CC23A9F0162F81110E941F0129
:10031000EC2FF0E0EE0FFF1FEE58FF4FA591B491C8
:100320008FB7F894EC91111108C0D095DE23DC93BF
:100330008FBFDF91CF911F910895DE2BF8CFCF9320
:10034000DF9390E0FC01E656FF4F24918A579F4FC0
:10035000FC0184918823C9F090E0880F991FFC016B
:10036000E859FF4FA591B491FC01EE58FF4FC5919C
:10037000D49161110DC09FB7F8948C912095822380
:100380008C938881282328839FBFDF91CF91089584
:10039000623051F49FB7F8943C91822F809583236B
:1003A0008C93E8812E2BEFCF8FB7F894EC912E2B06
:1003B0002C938FBFEACF862F642F0C949F01862F3A
:1003C000642F0C947101862F0C944801AF92BF9258
:1003D000CF92DF92EF92FF920F931F93CF93DF9311
:1003E0006C017B018B01040F151FEB015E01AE1840
:1003F000BF08C017D10759F06991D601ED91FC9162
:100400000190F081E02DC6010995892B79F7C5018E
:10041000DF91CF911F910F91FF90EF90DF90CF90E0
:10042000BF90AF900895FC01538D448D252F30E08F
:10043000842F90E0821B930B541710F0CF960895F1
:1004400001970895FC01918D828D981761F0A28D1E
:10045000AE0FBF2FB11D5D968C91928D9F5F9F73E4
:10046000928F90E008958FEF9FEF0895FC01918D9A
:10047000828D981731F0828DE80FF11D858D90E007
:1004800008958FEF9FEF0895FC01918D228D892FA4
:1004900090E0805C9F4F821B91098F73992708958C
:1004A0008BE391E00E94440221E0892B09F420E0D3
:1004B000822F089580E090E0892B29F00E9450025D
:1004C00081110C9400000895FC01A48DA80FB92F90
:1004D000B11DA35ABF4F2C91848D90E001968F736C
:1004E0009927848FA689B7892C93A089B1898C918B
:1004F000837080648C93938D848D981306C00288DA
:10050000F389E02D80818F7D80830895EF92FF92A3
:100510000F931F93CF93DF93EC0181E0888F9B8D26
:100520008C8D98131AC0E889F989808185FF15C0E0
:100530009FB7F894EE89FF896083E889F989808103
:100540008370806480839FBF81E090E0DF91CF91D2
:100550001F910F91FF90EF900895F62E0B8D10E0F4
:100560000F5F1F4F0F731127E02E8C8D8E110CC063
:100570000FB607FCFACFE889F989808185FFF5CFAE
:10058000CE010E946402F1CFEB8DEC0FFD2FF11D27
:10059000E35AFF4FF0829FB7F8940B8FEA89FB89EB
:1005A00080818062CFCFCF93DF93EC01888D882349
:1005B000B9F0AA89BB89E889F9898C9185FD03C0C6
:1005C000808186FD0DC00FB607FCF7CF8C9185FFAB
:1005D000F2CF808185FFEDCFCE010E946402E9CF8A
:1005E000DF91CF9108951F920F920FB60F921124B1
:1005F0002F933F938F939F93AF93BF938091370136
:1006000090913801A0913901B0913A0130913601B1
:1006100023E0230F2D3758F50196A11DB11D20931E
:1006200036018093370190933801A0933901B0933C
:100630003A018091320190913301A0913401B0913F
:1006400035010196A11DB11D8093320190933301B4
:10065000A0933401B0933501BF91AF919F918F91D9
:100660003F912F910F900FBE0F901F90189526E885
:10067000230F0296A11DB11DD2CF1F920F920FB66C
:100680000F9211242F933F934F935F936F937F9318
:100690008F939F93AF93BF93EF93FF938BE391E07F
:1006A0000E946402FF91EF91BF91AF919F918F9152
:1006B0007F916F915F914F913F912F910F900FBE5E
:1006C0000F901F9018951F920F920FB60F92112442
:1006D0002F938F939F93EF93FF93E0914B01F091B2
:1006E0004C018081E0915101F091520182FD1BC0CB
:1006F0009081809154018F5F8F73209155018217F3
:1007000041F0E0915401F0E0E55CFE4F958F80935D
:100710005401FF91EF919F918F912F910F900FBEF8
:100720000F901F9018958081F4CF10923E01109287
:100730003D0188EE93E0A0E0B0E080933F0190930C
:100740004001A0934101B093420187E191E0909371
:100750003C0180933B0185EC90E0909348018093AD
:10076000470184EC90E090934A018093490180EC2A
:1007700090E090934C0180934B0181EC90E090933A
:100780004E0180934D0182EC90E090935001809354
:100790004F0186EC90E090935201809351011092AA
:1007A0005401109255011092560110925701109267
:1007B000DA011092DE011092DD011092DF0189E270
:1007C00091E09093D9018093D801E4EFF1E0108299
:1007D000148213821582369682E0E033F807B9F767
:1007E00083E091E090933B0280933A0280E091E0B5
:1007F00090933D0280933C0284E080933E0283E02C
:1008000080933F0287E091E0909339028093380211
:100810008AE090E0909341028093400284EF91E05F
:100820009093430280934202109246021092450236
:100830001092340210923502109236021092370252
:10084000109244020895789484B5826084BD84B582
:10085000816084BD85B5826085BD85B5816085BDBB
:1008600080916E00816080936E0010928100809173
:1008700081008260809381008091810081608093FB
:100880008100809180008160809380008091B10020
:1008900084608093B1008091B00081608093B0004B
:1008A00080917A00846080937A0080917A008260DF
:1008B00080937A0080917A00816080937A008091A1
:1008C0007A00806880937A001092C100E0914B0119
:1008D000F0914C0182E08083E0914701F091480162
:1008E0001082E0914901F0914A018FEC80831092CF
:1008F0005301E0914F01F091500186E08083E09137
:100900004D01F0914E01808180618083E0914D0125
:10091000F0914E01808188608083E0914D01F091DB
:100920004E01808180688083E0914D01F0914E01FD
:1009300080818F7D8083412C512C3201439422246D
:100940002A94322C50E0C52E50E0D52E51E0509321
:1009500044028FB7F894409137015091380160916B
:10096000390170913A018FBF809134029091350224
:10097000A0913602B0913702481B590B6A0B7B0BD2
:100980008091400290914102B0E0A0E08417950769
:10099000A607B70708F017C1C0E080913E02C8174C
:1009A00060F4E0913A02F0913B02EC0FF11D62E03D
:1009B00080810E949F01CF5FF0CF912C80913F02F8
:1009C000981608F05FC0092D10E0E0913C02F0910C
:1009D0003D02E00FF11F61E080810E949F01E091E4
:1009E0003C02F0913D02E00FF11F60E080810E9427
:1009F0007101D301C201092C04C0880F991FAA1FDD
:100A0000BB1F0A94D2F75C017C01E094F094812C26
:100A100080913E028816F8F4C82DD0E0E0913A02A9
:100A2000F0913B02EC0FFD1F80810E94480124964B
:100A3000CC0FDD1FC852DE4F892B41F4888199818C
:100A40008A299B29998388838394E2CF888199811D
:100A50008E219F21F7CFE0913C02F0913D02E00F03
:100A6000F11F61E080810E94710180913C029091B0
:100A70003D02080F191F60E0F80180810E949F016C
:100A800093949CCFC8EDD1E0FE01878D90A1892B76
:100A900021F4148E368E258E11A2369652E0E43162
:100AA000F50799F710E080913E02181708F053C03F
:100AB00000E0E12EF12CEE0CFF1CC70180529E4F8E
:100AC0007C0120913F02021708F043C0F7016081CA
:100AD0007181002E02C0769567950A94E2F7129F05
:100AE00090011124200F311DE8EDF1E080E0458DEB
:100AF000568D2417350709F476C08F5F36968A30F5
:100B0000B1F760FF24C0E8EDF1E090E080E0448DB3
:100B1000411118C0E0913802F0913902E20FF31F41
:100B2000408156E0589FF001599FF00D1124E85282
:100B3000FE4F448F368F258F10A2178E61E00E94E2
:100B4000AF0005C0019636968A30910501F70F5F18
:100B5000B8CF1F5FA8CF80E099A19111892F269669
:100B600092E0C431D907C1F79FB7F894409137019B
:100B7000509138016091390170913A019FBF4093C3
:100B80003402509335026093360270933702882303
:100B9000D1F08091F9018823B1F08091F701909113
:100BA000F801019781F46091F40161110FC0C11443
:100BB000D10409F4CBCE0E945002882309F4C6CE9A
:100BC0000E940000C3CE10924402F1CF8BE391E06B
:100BD0000E94860242E050E06FE271E08BE391E018
:100BE0000E94E601E4CF6170AACFEE0FFF1F0590CF
:0A0BF000F491E02D0994F894FFCF72
:100BFA000C0B0A09080706313233343536373839CF
:100C0A00233023000000008602E6011302D30244C7
:100C1A00022202360200000000DB01DF01E3010DBF
:020C2A000A00BE
:00000001FF
