:100000000C9435000C945D000C945D000C945D0024
:100010000C945D000C945D000C945D000C945D00EC
:100020000C945D000C945D000C945D000C945D00DC
:100030000C945D000C945D000C945D000C945D00CC
:100040000C94F4010C945D000C9464020C943E0238
:100050000C945D000C945D000C945D000C945D00AC
:100060000C945D000C945D00620311241FBECFEF61
:10007000D8E0DEBFCDBF11E0A0E0B1E0E2E7F7E0FD
:1000800002C005900D92A032B107D9F721E0A0E29D
:10009000B1E001C01D92A63CB207E1F710E0C5E354
:1000A000D0E004C02197FE010E94B103C433D10700
:1000B000C9F70E9496020C94B7030C940000AF920B
:1000C000BF92CF92DF92EF92FF920F931F93CF9345
:1000D000DF936C017B018B01040F151FEB015E01A7
:1000E000AE18BF08C017D10759F06991D601ED913C
:1000F000FC910190F081E02DC6010995892B79F7DB
:10010000C501DF91CF911F910F91FF90EF90DF908C
:10011000CF90BF90AF900895FC01538D448D252F53
:1001200030E0842F90E0821B930B541710F0CF9691
:10013000089501970895FC01918D828D981761F0C3
:10014000A28DAE0FBF2FB11D5D968C91928D9F5FDA
:100150009F73928F90E008958FEF9FEF0895FC01B9
:10016000918D828D981731F0828DE80FF11D858D6C
:1001700090E008958FEF9FEF0895FC01918D228DFF
:10018000892F90E0805C9F4F821B91098F73992784
:10019000089589E291E00E94BD0021E0892B09F4D5
:1001A00020E0822F089580E090E0892B29F00E94C2
:1001B000C90081110C9400000895FC01A48DA80FC2
:1001C000B92FB11DA35ABF4F2C91848D90E0019699
:1001D0008F739927848FA689B7892C93A089B189B9
:1001E0008C91837080648C93938D848D981306C05A
:1001F0000288F389E02D80818F7D80830895EF92BE
:10020000FF920F931F93CF93DF93EC0181E0888FD0
:100210009B8D8C8D98131AC0E889F989808185FFA0
:1002200015C09FB7F894EE89FF896083E889F98942
:1002300080818370806480839FBF81E090E0DF9144
:10024000CF911F910F91FF90EF900895F62E0B8D97
:1002500010E00F5F1F4F0F731127E02E8C8D8E1152
:100260000CC00FB607FCFACFE889F989808185FFB9
:10027000F5CFCE010E94DD00F1CFEB8DEC0FFD2F0D
:10028000F11DE35AFF4FF0829FB7F8940B8FEA8974
:10029000FB8980818062CFCFCF93DF93EC01888D83
:1002A0008823B9F0AA89BB89E889F9898C9185FDF1
:1002B00003C0808186FD0DC00FB607FCF7CF8C917F
:1002C00085FFF2CF808185FFEDCFCE010E94DD005A
:1002D000E9CFDF91CF910895FC0101900020E9F76B
:1002E0003197AF01481B590BBC0189E291E00C9496
:1002F0005F008F929F92AF92BF92CF92DF92EF9268
:10030000FF920F931F93CF93DF93CDB7DEB7A197E3
:100310000FB6F894DEBF0FBECDBF6B017C01F7FEB8
:1003200041C06DE289E291E00E94FF008C0122272A
:100330003327A9012C193D094E095F0919A2CE01E5
:1003400081967C019AE0892E912CA12CB12CCA01B6
:10035000B901A50194010E948F03605DF7016293CA
:100360007F01211531054105510589F790E080E0B5
:10037000309719F0CF010E946C01800F911FA19658
:100380000FB6F894DEBF0FBECDBFDF91CF911F91A6
:100390000F91FF90EF90DF90CF90BF90AF909F9024
:1003A0008F900895AC019B0119A28E010F5D1F4F24
:1003B0008AE0C82ED12CE12CF12CCA01B901A70189
:1003C00096010E948F03605DF80162938F012115F1
:1003D00031054105510589F790E080E0309779F2C9
:1003E000CF010E946C01CBCF1F920F920FB60F92DC
:1003F00011242F933F938F939F93AF93BF9380913B
:10040000250190912601A0912701B09128013091FA
:10041000240123E0230F2D3758F50196A11DB11DAE
:10042000209324018093250190932601A093270116
:10043000B09328018091200190912101A091220187
:10044000B09123010196A11DB11D809320019093CD
:100450002101A0932201B0932301BF91AF919F91FD
:100460008F913F912F910F900FBE0F901F90189575
:1004700026E8230F0296A11DB11DD2CF1F920F9225
:100480000FB60F9211242F933F934F935F936F9367
:100490007F938F939F93AF93BF93EF93FF9389E2E3
:1004A00091E00E94DD00FF91EF91BF91AF919F918C
:1004B0008F917F916F915F914F913F912F910F900D
:1004C0000FBE0F901F9018951F920F920FB60F92AC
:1004D00011242F938F939F93EF93FF93E091390112
:1004E000F0913A018081E0913F01F091400182FD5D
:1004F0001BC09081809142018F5F8F7320914301D7
:10050000821741F0E0914201F0E0E75DFE4F958FE8
:1005100080934201FF91EF919F918F912F910F90C6
:100520000FBE0F901F9018958081F4CF789484B5FA
:10053000826084BD84B5816084BD85B5826085BDDF
:1005400085B5816085BD80916E00816080936E006D
:10055000109281008091810082608093810080915F
:100560008100816080938100809180008160809310
:1005700080008091B10084608093B1008091B000D0
:1005800081608093B00080917A00846080937A00CB
:1005900080917A00826080937A0080917A008160F5
:1005A00080937A0080917A00806880937A0010921C
:1005B000C100E0913901F0913A0182E08083E0913D
:1005C0003501F09136011082E0913701F091380148
:1005D0008FEC808310924101E0913D01F0913E014A
:1005E00086E08083E0913B01F0913C018081806155
:1005F0008083E0913B01F0913C01808188608083A1
:10060000E0913B01F0913C01808180688083E09122
:100610003B01F0913C0180818F7D8083C12CD12CE6
:100620007601C39456010AE010E0C1E0D0E0C701B2
:10063000B6010E94790182E191E00E946C01BE0145
:100640000D2E000C880B990B0E94790186E191E038
:100650000E946C01AC9EB001AD9E700DBC9E700DF1
:100660001124072E000C880B990B0E9479018AE156
:1006700091E00E946C018DE191E00E946C01219655
:1006800001501109A1F68AE191E00E946C018DE10F
:1006900091E00E946C018FEFC81AD80AE80AF80AA4
:1006A0008BE0C816D104E104F10409F0BBCFC0E02F
:1006B000D0E02097F1F30E94C9008823D1F30E9473
:1006C0000000F7CFE9E2F1E01382128288EE93E0B6
:1006D000A0E0B0E084839583A683B78384E091E0B3
:1006E0009183808385EC90E09587848784EC90E00B
:1006F0009787868780EC90E0918B808B81EC90E0EF
:10070000938B828B82EC90E0958B848B86EC90E0CF
:10071000978B868B118E128E138E148E0895A1E204
:100720001A2EAA1BBB1BFD010DC0AA1FBB1FEE1F6B
:10073000FF1FA217B307E407F50720F0A21BB30BB6
:10074000E40BF50B661F771F881F991F1A9469F732
:1007500060957095809590959B01AC01BD01CF018E
:100760000895EE0FFF1F0590F491E02D0994F89481
:02077000FFCFB9
:1007720000000000FF005F008C004C01BD009B00E8
:10078200AF00202A2000203D20002020000D0A007A
:00000001FF
