:100000000C9462000C948A000C948A000C948A0070
:100010000C948A000C948A000C948A000C948A0038
:100020000C948A000C948A000C948A000C948A0028
:100030000C948A000C948A000C948A000C948A0018
:100040000C9441030C948A000C94B1030C948B0320
:100050000C948A000C948A000C948A000C948A00F8
:100060000C948A000C948A000000000024002700F1
:100070002A0000000000250028002B0000000000DE
:1000800023002600290004040404040404040202DA
:100090000202020203030303030301020408102007
:1000A0004080010204081020010204081020000012
:1000B0000008000201000003040700000000000027
:1000C0000000770511241FBECFEFD8E0DEBFCDBF03
:1000D00011E0A0E0B1E0ECE9FBE002C005900D9278
:1000E000A033B107D9F721E0A0E3B1E001C01D9230
:1000F000AC3DB207E1F710E0C2E6D0E004C02197C2
:10010000FE010E94C605C136D107C9F70E94E3036C
:100110000C94CC050C940000833081F028F48130DD
:1001200099F08230A9F008958730A9F08830C9F09D
:100130008430B1F4809180008F7D03C08091800075
:100140008F7780938000089584B58F7784BD08955C
:1001500084B58F7DFBCF8091B0008F778093B00006
:1001600008958091B0008F7DF9CFCF93DF93282F32
:1001700030E0F901E255FF4F8491F901E656FF4F57
:10018000D491F901EA57FF4FC491CC23A1F081111A
:100190000E948C00EC2FF0E0EE0FFF1FE458FF4FA1
:1001A000A591B491EC91ED2381E090E009F480E019
:1001B000DF91CF91089580E090E0FACF1F93CF9325
:1001C000DF93282F30E0F901E255FF4F8491F901C8
:1001D000E656FF4FD491F901EA57FF4FC491CC2363
:1001E000A9F0162F81110E948C00EC2FF0E0EE0F89
:1001F000FF1FEE58FF4FA591B4918FB7F894EC9183
:10020000111108C0D095DE23DC938FBFDF91CF9111
:100210001F910895DE2BF8CFCF93DF9390E0FC0180
:10022000E656FF4F24918A579F4FFC018491882303
:10023000D1F090E0880F991FFC01E859FF4FA5917C
:10024000B491FC01EE58FF4FC591D49161110EC0DD
:100250009FB7F8948C91E22FE0958E238C932881A0
:10026000E223E8839FBFDF91CF9108958FB7F89481
:10027000EC91E22BEC938FBFF6CF3FB7F8948091CF
:100280003B0190913C01A0913D01B0913E0126B50A
:10029000A89B05C02F3F19F00196A11DB11D3FBFBE
:1002A000BA2FA92F982F8827BC01CD01620F711D8D
:1002B000811D911D42E0660F771F881F991F4A9587
:1002C000D1F708958F929F92AF92BF92CF92DF9213
:1002D000EF92FF924B015C010E943D016B017C019A
:1002E0000E943D016C197D098E099F09683E73408B
:1002F00081059105A8F321E0821A9108A108B108AF
:1003000088EEC80E83E0D81EE11CF11C8114910414
:10031000A104B10429F7FF90EF90DF90CF90BF9038
:10032000AF909F908F900895AF92BF92CF92DF923F
:10033000EF92FF920F931F93CF93DF936C017B019A
:100340008B01040F151FEB015E01AE18BF08C0172B
:10035000D10759F06991D601ED91FC910190F0819E
:10036000E02DC6010995892B79F7C501DF91CF9161
:100370001F910F91FF90EF90DF90CF90BF90AF90C3
:100380000895FC01538D448D252F30E0842F90E09B
:10039000821B930B541710F0CF9608950197089580
:1003A000FC01918D828D981761F0A28DAE0FBF2F49
:1003B000B11D5D968C91928D9F5F9F73928F90E09F
:1003C00008958FEF9FEF0895FC01918D828D98170E
:1003D00031F0828DE80FF11D858D90E008958FEF4B
:1003E0009FEF0895FC01918D228D892F90E0805C14
:1003F0009F4F821B91098F73992708958FE391E096
:100400000E94F20121E0892B09F420E0822F089557
:1004100080E090E0892B29F00E94FE0181110C946C
:1004200000000895FC01A48DA80FB92FB11DA35A97
:10043000BF4F2C91848D90E001968F739927848F04
:10044000A689B7892C93A089B1898C918370806427
:100450008C93938D848D981306C00288F389E02DC8
:1004600080818F7D80830895EF92FF920F931F9379
:10047000CF93DF93EC0181E0888F9B8D8C8D981357
:100480001AC0E889F989808185FF15C09FB7F89463
:10049000EE89FF896083E889F989808183708064AF
:1004A00080839FBF81E090E0DF91CF911F910F91FA
:1004B000FF90EF900895F62E0B8D10E00F5F1F4F09
:1004C0000F731127E02E8C8D8E110CC00FB607FC18
:1004D000FACFE889F989808185FFF5CFCE010E94A6
:1004E0001202F1CFEB8DEC0FFD2FF11DE35AFF4F00
:1004F000F0829FB7F8940B8FEA89FB898081806234
:10050000CFCFCF93DF93EC01888D8823B9F0AA89F0
:10051000BB89E889F9898C9185FD03C0808186FDBE
:100520000DC00FB607FCF7CF8C9185FFF2CF80810D
:1005300085FFEDCFCE010E941202E9CFDF91CF916E
:100540000895CF9364EF71E080E090E00E94620133
:10055000C5E060E08C2F0E94DE00CF5FCC30C9F791
:1005600068EC70E080E090E0CF910C946201FC01B7
:1005700001900020E9F73197AF01481B590BBC01EE
:100580008FE391E00C9494018F929F92AF92BF926F
:10059000CF92DF92EF92FF920F931F93CF93DF934F
:1005A000CDB7DEB7A1970FB6F894DEBF0FBECDBFB3
:1005B0006C01990FEE08FF08F7FE41C06DE28FE372
:1005C00091E00E9434028C0122273327A9012C19C3
:1005D0003D094E095F0919A2CE0181967C019AE07E
:1005E000892E912CA12CB12CCA01B901A50194012D
:1005F0000E94A405605DF70162937F01211531051A
:100600004105510589F790E080E0309719F0CF015E
:100610000E94B702800F911FA1960FB6F894DEBF1B
:100620000FBECDBFDF91CF911F910F91FF90EF9043
:10063000DF90CF90BF90AF909F908F900895A701CB
:10064000960119A28E010F5D1F4F8AE0C82ED12C92
:10065000E12CF12CCA01B901A70196010E94A40561
:10066000605DF80162938F01211531054105510547
:1006700089F790E080E0309779F2CF010E94B702CD
:10068000CBCF1F920F920FB60F9211242F933F934F
:100690008F939F93AF93BF938091370190913801CF
:1006A000A0913901B0913A013091360123E0230F36
:1006B0002D3758F50196A11DB11D20933601809369
:1006C000370190933801A0933901B0933A0180919A
:1006D0003B0190913C01A0913D01B0913E010196FA
:1006E000A11DB11D80933B0190933C01A0933D015E
:1006F000B0933E01BF91AF919F918F913F912F9108
:100700000F900FBE0F901F90189526E8230F0296AA
:10071000A11DB11DD2CF1F920F920FB60F921124BF
:100720002F933F934F935F936F937F938F939F93F9
:10073000AF93BF93EF93FF938FE391E00E94120278
:10074000FF91EF91BF91AF919F918F917F916F91A9
:100750005F914F913F912F910F900FBE0F901F907F
:1007600018951F920F920FB60F9211242F938F930B
:100770009F93EF93FF93E0914F01F091500180819F
:10078000E0915501F091560182FD1BC0908180914E
:1007900058018F5F8F7320915901821741F0E091CA
:1007A0005801F0E0E15CFE4F958F80935801FF9176
:1007B000EF919F918F912F910F900FBE0F901F90EF
:1007C00018958081F4CF789484B5826084BD84B517
:1007D000816084BD85B5826085BD85B5816085BD3C
:1007E00080916E00816080936E00109281008091F4
:1007F000810082608093810080918100816080937C
:100800008100809180008160809380008091B100A0
:1008100084608093B1008091B00081608093B000CB
:1008200080917A00846080937A0080917A0082605F
:1008300080937A0080917A00816080937A00809121
:100840007A00806880937A001092C10061E085E0B0
:100850000E940C0161E086E00E940C0161E087E0EB
:100860000E940C0161E088E00E940C0161E089E0D7
:100870000E940C0161E08AE00E940C0161E08BE0C3
:100880000E940C0160E084E00E940C0160E083E0C3
:100890000E940C0160E082E00E940C01E0914F0197
:1008A000F091500182E08083E0914B01F0914C0186
:1008B0001082E0914D01F0914E018FEC80831092F7
:1008C0005701E0915301F091540186E08083E0915B
:1008D0005101F0915201808180618083E09151014A
:1008E000F0915201808188608083E0915101F09104
:1008F0005201808180688083E0915101F091520122
:1009000080818F7D808300E010E082E00E94B5004E
:10091000EC01909335018093340183E00E94B5008F
:100920007C01909333018093320184E00E94B500F2
:10093000909331018093300151E0C130D10509F02D
:1009400050E021E031E0E316F10409F020E0652FEA
:10095000622341E08130910509F040E0662389F08F
:10096000442379F061E086E00E94DE0061E087E0E8
:100970000E94DE0061E088E00E94DE0061E089E024
:1009800028C031E0209709F030E03223442369F099
:10099000332359F061E089E00E94DE0061E08AE0E3
:1009A0000E94DE000E94A10270C021E0E114F10467
:1009B00009F020E02523442389F0222379F061E027
:1009C00087E00E94DE0061E088E00E94DE0061E0D6
:1009D00085E00E94DE0061E08AE032C0CE29DF2996
:1009E000209729F4442319F061E085E0C1CF41E06C
:1009F000009709F040E0662389F0442379F061E034
:100A000085E00E94DE0061E089E00E94DE0061E096
:100A10008AE00E94DE0061E086E0C2CF3323A9F0C5
:100A2000442399F061E085E00E94DE0061E089E006
:100A30000E94DE0061E088E00E94DE0061E086E066
:100A40000E94DE0061E08BE0ABCF2223C9F044239B
:100A5000B9F061E08BE00E94DE0061E086E00E9478
:100A6000DE0061E085E00E94DE0061E087E00E9438
:100A7000DE0061E088E00E94DE0061E089E090CF66
:100A8000C82BD92BCD2B09F479CF82E191E00E94BC
:100A9000B70280913401909135010E94C4028BE12C
:100AA00091E00E94B70280913201909133010E943F
:100AB000C40284E291E00E94B702809130019091DB
:100AC00031010E94C4028FE291E00E94B7028DE2E0
:100AD00091E00E94B7020115110509F416CF0E949A
:100AE000FE01882309F411CF0E9400000ECFEFE32E
:100AF000F1E01382128288EE93E0A0E0B0E08483FC
:100B00009583A683B78384E091E09183808385EC0D
:100B100090E09587848784EC90E09787868780ECC7
:100B200090E0918B808B81EC90E0938B828B82ECB8
:100B300090E0958B848B86EC90E0978B868B118E62
:100B4000128E138E148E0895A1E21A2EAA1BBB1BBF
:100B5000FD010DC0AA1FBB1FEE1FFF1FA217B30789
:100B6000E407F50720F0A21BB30BE40BF50B661F9F
:100B7000771F881F991F1A9469F760957095809563
:100B800090959B01AC01BD01CF010895EE0FFF1FB1
:0C0B90000590F491E02D0994F894FFCF3B
:100B9C000000000034029401C1018102F201D00175
:100BAC00E40120322E2070696E200020332E20703C
:100BBC00696E200020342E2070696E20000D0A0012
:00000001FF
