:020000040000FA
:100000000C9462000C948A000C948A000C948A0070
:100010000C948A000C948A000C948A000C948A0038
:100020000C948A000C948A000C948A000C948A0028
:100030000C948A000C948A000C948A000C948A0018
:100040000C94F3020C948A000C9463030C943D030B
:100050000C948A000C948A000C948A000C948A00F8
:100060000C948A000C948A000000000024002700F1
:100070002A0000000000250028002B0000000000DE
:1000800023002600290004040404040404040202DA
:100090000202020203030303030301020408102007
:1000A0004080010204081020010204081020000012
:1000B0000008000201000003040700000000000027
:1000C0000000950311241FBECFEFD8E0DEBFCDBFE7
:1000D00011E0A0E0B1E0EEE0FCE002C005900D927E
:1000E000AA33B107D9F722E0AAE3B1E001C01D921B
:1000F000AF34B207E1F710E0C2E6D0E004C02197C8
:10010000FE010E94FF05C136D107C9F70E942204F3
:100110000C9405060C94000096E0899FD0011124F0
:10012000A052BE4F90967C936E935F9791E091960C
:100130009C939197E0914D02F0914E0290914C0268
:10014000992339F0309751F0811108C08091FC015A
:100150000994309719F05C968C91FACF0895CF925C
:10016000DF92EF92FF920F931F9396E0899FF00129
:100170001124E052FE4F11A2278D30A1213031050C
:1001800051F178F02230310509F451C023303105A6
:1001900009F452C01F910F91FF90EF90DF90CF9024
:1001A00008956623B9F361E070E00E948C002FB7D8
:1001B000F89480913F0190914001A0914101B0914C
:1001C00042012FBF8093380290933902A0933A02E4
:1001D000B0933B02DFCF9FB7F894C0903F01D0901F
:1001E0004001E0904101F09042019FBF0091380230
:1001F0001091390220913A0230913B02C01AD10A83
:10020000E20AF30A00914A0210914B0230E020E02A
:100210000C151D052E053F0550F462E070E01F919E
:100220000F91FF90EF90DF90CF900C948C006111B4
:10023000B1CF63E070E0F3CF70E060E0F0CF8330E7
:1002400081F028F4813099F08230A9F00895873048
:10025000A9F08830C9F08430B1F4809180008F7D9E
:1002600003C0809180008F7780938000089584B5CB
:100270008F7784BD089584B58F7DFBCF8091B000CA
:100280008F778093B00008958091B0008F7DF9CF73
:10029000CF93DF93282F30E0F901E255FF4F84918F
:1002A000F901E656FF4FD491F901EA57FF4FC49187
:1002B000CC23A1F081110E941F01EC2FF0E0EE0F82
:1002C000FF1FE458FF4FA591B491EC91ED2381E01D
:1002D00090E009F480E0DF91CF91089580E090E014
:1002E000FACF1F93CF93DF93282F30E0F901E25527
:1002F000FF4F8491F901E656FF4FD491F901EA5777
:10030000FF4FC491CC23A9F0162F81110E941F0129
:10031000EC2FF0E0EE0FFF1FEE58FF4FA591B491C8
:100320008FB7F894EC91111108C0D095DE23DC93BF
:100330008FBFDF91CF911F910895DE2BF8CFCF9320
:10034000DF9390E0FC01E656FF4F24918A579F4FC0
:10035000FC0184918823C9F090E0880F991FFC016B
:10036000E859FF4FA591B491FC01EE58FF4FC5919C
:10037000D49161110DC09FB7F8948C912095822380
:100380008C938881282328839FBFDF91CF91089584
:10039000623051F49FB7F8943C91822F809583236B
:1003A0008C93E8812E2BEFCF8FB7F894EC912E2B06
:1003B0002C938FBFEACF862F642F0C949F01862F3A
:1003C000642F0C947101862F0C944801AF92BF9258
:1003D000CF92DF92EF92FF920F931F93CF93DF9311
:1003E0006C017B018B01040F151FEB015E01AE1840
:1003F000BF08C017D10759F06991D601ED91FC9162
:100400000190F081E02DC6010995892B79F7C5018E
:10041000DF91CF911F910F91FF90EF90DF90CF90E0
:10042000BF90AF900895FC01538D448D252F30E08F
:10043000842F90E0821B930B541710F0CF960895F1
:1004400001970895FC01918D828D981761F0A28D1E
:10045000AE0FBF2FB11D5D968C91928D9F5F9F73E4
:10046000928F90E008958FEF9FEF0895FC01918D9A
:10047000828D981731F0828DE80FF11D858D90E007
:1004800008958FEF9FEF0895FC01918D228D892FA4
:1004900090E0805C9F4F821B91098F73992708958C
:1004A00083E491E00E94440221E0892B09F420E0DA
:1004B000822F089580E090E0892B29F00E9450025D
:1004C00081110C9400000895FC01A48DA80FB92F90
:1004D000B11DA35ABF4F2C91848D90E001968F736C
:1004E0009927848FA689B7892C93A089B1898C918B
:1004F000837080648C93938D848D981306C00288DA
:10050000F389E02D80818F7D80830895EF92FF92A3
:100510000F931F93CF93DF93EC0181E0888F9B8D26
:100520008C8D98131AC0E889F989808185FF15C0E0
:100530009FB7F894EE89FF896083E889F989808103
:100540008370806480839FBF81E090E0DF91CF91D2
:100550001F910F91FF90EF900895F62E0B8D10E0F4
:100560000F5F1F4F0F731127E02E8C8D8E110CC063
:100570000FB607FCFACFE889F989808185FFF5CFAE
:10058000CE010E946402F1CFEB8DEC0FFD2FF11D27
:10059000E35AFF4FF0829FB7F8940B8FEA89FB89EB
:1005A00080818062CFCFCF93DF93EC01888D882349
:1005B000B9F0AA89BB89E889F9898C9185FD03C0C6
:1005C000808186FD0DC00FB607FCF7CF8C9185FFAB
:1005D000F2CF808185FFEDCFCE010E946402E9CF8A
:1005E000DF91CF9108951F920F920FB60F921124B1
:1005F0002F933F938F939F93AF93BF9380913F012E
:1006000090914001A0914101B091420130913E0191
:1006100023E0230F2D3758F50196A11DB11D20931E
:100620003E0180933F0190934001A0934101B0931C
:10063000420180913A0190913B01A0913C01B0911F
:100640003D010196A11DB11D80933A0190933B019C
:10065000A0933C01B0933D01BF91AF919F918F91C9
:100660003F912F910F900FBE0F901F90189526E885
:10067000230F0296A11DB11DD2CF1F920F920FB66C
:100680000F9211242F933F934F935F936F937F9318
:100690008F939F93AF93BF93EF93FF9383E491E086
:1006A0000E946402FF91EF91BF91AF919F918F9152
:1006B0007F916F915F914F913F912F910F900FBE5E
:1006C0000F901F9018951F920F920FB60F92112442
:1006D0002F938F939F93EF93FF93E0915301F091AA
:1006E00054018081E0915901F0915A0182FD1BC0B3
:1006F000908180915C018F5F8F7320915D018217E3
:1007000041F0E0915C01F0E0ED5BFE4F958F80934E
:100710005C01FF91EF919F918F912F910F900FBEF0
:100720000F901F9018958081F4CF1092460110927F
:10073000450188EE93E0A0E0B0E0809347019093FC
:100740004801A0934901B0934A018CE191E0909354
:1007500044018093430185EC90E090935001809395
:100760004F0184EC90E0909352018093510180EC12
:1007700090E0909354018093530181EC90E090932A
:1007800056018093550182EC90E09093580180933C
:10079000570186EC90E090935A0180935901109292
:1007A0005C0110925D0110925E0110925F01109247
:1007B000E2011092E6011092E5011092E7018EE24B
:1007C00091E09093E1018093E001ECEFF1E0108281
:1007D000148213821582369682E0E833F807B9F75F
:1007E00084E091E0909343028093420280E091E0A4
:1007F000909345028093440284E080934602809364
:10080000470288E091E090934102809340028AE0A1
:1008100090E0909349028093480284EF91E0909396
:100820004B0280934A0210924E0210924D02109297
:100830003C0210923D0210923E0210923F02109232
:100840004C020895789484B5826084BD84B581603B
:1008500084BD85B5826085BD85B5816085BD80918B
:100860006E00816080936E00109281008091810003
:1008700082608093810080918100816080938100FB
:10088000809180008160809380008091B1008460BD
:100890008093B1008091B00081608093B00080911E
:1008A0007A00846080937A0080917A0082608093DD
:1008B0007A0080917A00816080937A0080917A003A
:1008C000806880937A001092C100E0915301F0910A
:1008D000540182E08083E0914F01F0915001108239
:1008E000E0915101F09152018FEC808310925B01F5
:1008F000E0915701F091580186E08083E091550125
:10090000F0915601808180618083E0915501F091E2
:100910005601808188608083E0915501F0915601F5
:10092000808180688083E0915501F091560180813B
:100930008F7D8083412C512C3201439422242A94B0
:10094000322C50E0C52E50E0D52E51E050934C0291
:100950008FB7F89440913F0150914001609141015F
:10096000709142018FBF80913C0290913D02A09115
:100970003E02B0913F02481B590B6A0B7B0B8091E2
:10098000480290914902B0E0A0E084179507A607BD
:10099000B70708F017C1C0E080914602C81760F49D
:1009A000E0914202F0914302EC0FF11D62E0808180
:1009B0000E949F01CF5FF0CF912C80914702981643
:1009C00008F05FC0092D10E0E0914402F09145026B
:1009D000E00FF11F61E080810E949F01E0914402DD
:1009E000F0914502E00FF11F60E080810E947101EB
:1009F000D301C201092C04C0880F991FAA1FBB1F75
:100A00000A94D2F75C017C01E094F094812C8091EF
:100A100046028816F8F4C82DD0E0E0914202F09129
:100A20004302EC0FFD1F80810E9448012496CC0FE9
:100A3000DD1FC052DE4F892B41F4888199818A29BC
:100A40009B29998388838394E2CF888199818E2121
:100A50009F21F7CFE0914402F0914502E00FF11F92
:100A600061E080810E947101809144029091450271
:100A7000080F191F60E0F80180810E949F01939484
:100A80009CCFC0EED1E0FE01878D90A1892B21F48F
:100A9000148E368E258E11A2369652E0EC31F50773
:100AA00099F710E080914602181708F053C000E053
:100AB000E12EF12CEE0CFF1CC70188519E4F7C01EA
:100AC00020914702021708F043C0F701608171814D
:100AD000002E02C0769567950A94E2F7129F900166
:100AE0001124200F311DE0EEF1E080E0458D568DA0
:100AF0002417350709F481C08F5F36968A30B1F725
:100B000060FF24C0E0EEF1E090E080E0448D411110
:100B100018C0E0914002F0914102E20FF31F4081C2
:100B200056E0589FF001599FF00D1124E052FE4FFE
:100B3000448F368F258F10A2178E61E00E94AF0080
:100B400005C0019636968A30910501F70F5FB8CF40
:100B50001F5FA8CF80E099A19111892F269692E07E
:100B6000CC31D907C1F79FB7F89440913F0150911C
:100B7000400160914101709142019FBF40933C024E
:100B800050933D0260933E0270933F028823D1F060
:100B9000809101028823B1F08091FF0190910002C1
:100BA000019781F4C091FC01C1110FC0C114D1049F
:100BB00009F4CBCE0E945002882309F4C6CE0E94CD
:100BC0000000C3CE10924C02F1CF6C2F83E491E071
:100BD0000E948602C33251F741E050E064E371E0C5
:100BE00083E491E00E94E60142E050E066E371E0B8
:100BF00083E491E00E94E601D9CF61709FCFEE0FB0
:100C0000FF1F0590F491E02D0994F894FFCF0D0C8F
:100C10000B0A090807063738392F3435362A31329E
:100C2000332D23303D2B000000008602E601130225
:100C3000D30244022202360200000000DB01DF0181
:080C4000E30120000D0A000091
:107E0000112484B714BE81FFF0D085E080938100F7
:107E100082E08093C00088E18093C10086E0809377
:107E2000C20080E18093C4008EE0C9D0259A86E02C
:107E300020E33CEF91E0309385002093840096BBD3
:107E4000B09BFECF1D9AA8958150A9F7CC24DD24C4
:107E500088248394B5E0AB2EA1E19A2EF3E0BF2EE7
:107E6000A2D0813461F49FD0082FAFD0023811F036
:107E7000013811F484E001C083E08DD089C08234E0
:107E800011F484E103C0853419F485E0A6D080C0E4
:107E9000853579F488D0E82EFF2485D0082F10E0AE
:107EA000102F00270E291F29000F111F8ED06801E7
:107EB0006FC0863521F484E090D080E0DECF843638
:107EC00009F040C070D06FD0082F6DD080E0C81688
:107ED00080E7D80618F4F601B7BEE895C0E0D1E017
:107EE00062D089930C17E1F7F0E0CF16F0E7DF06D8
:107EF00018F0F601B7BEE89568D007B600FCFDCFD4
:107F0000A601A0E0B1E02C9130E011968C91119780
:107F100090E0982F8827822B932B1296FA010C0160
:107F200087BEE89511244E5F5F4FF1E0A038BF0790
:107F300051F7F601A7BEE89507B600FCFDCF97BE46
:107F4000E89526C08437B1F42ED02DD0F82E2BD052
:107F50003CD0F601EF2C8F010F5F1F4F84911BD097
:107F6000EA94F801C1F70894C11CD11CFA94CF0C13
:107F7000D11C0EC0853739F428D08EE10CD085E9AC
:107F80000AD08FE07ACF813511F488E018D01DD067
:107F900080E101D065CF982F8091C00085FFFCCF94
:107FA0009093C60008958091C00087FFFCCF809118
:107FB000C00084FD01C0A8958091C6000895E0E648
:107FC000F0E098E1908380830895EDDF803219F02E
:107FD00088E0F5DFFFCF84E1DECF1F93182FE3DFCA
:107FE0001150E9F7F2DF1F91089580E0E8DFEE27F6
:047FF000FF270994CA
:027FFE00040479
:00000001FF
